{
  "contractName": "Etherary",
  "abi": [
    {
      "constant": true,
      "inputs": [],
      "name": "tradeId",
      "outputs": [
        {
          "name": "",
          "type": "uint256"
        }
      ],
      "payable": false,
      "stateMutability": "view",
      "type": "function"
    },
    {
      "constant": true,
      "inputs": [
        {
          "name": "",
          "type": "uint256"
        }
      ],
      "name": "idToTrade",
      "outputs": [
        {
          "name": "maker",
          "type": "address"
        },
        {
          "name": "taker",
          "type": "address"
        },
        {
          "name": "tokenContract",
          "type": "address"
        },
        {
          "name": "makerTokenId",
          "type": "uint256"
        },
        {
          "name": "takerTokenId",
          "type": "uint256"
        },
        {
          "name": "isActive",
          "type": "bool"
        }
      ],
      "payable": false,
      "stateMutability": "view",
      "type": "function"
    },
    {
      "anonymous": false,
      "inputs": [
        {
          "indexed": false,
          "name": "_tokenContract",
          "type": "address"
        },
        {
          "indexed": false,
          "name": "_makerTokenId",
          "type": "uint256"
        },
        {
          "indexed": false,
          "name": "_takerTokenId",
          "type": "uint256"
        },
        {
          "indexed": false,
          "name": "_tradeId",
          "type": "uint256"
        }
      ],
      "name": "TradeCreated",
      "type": "event"
    },
    {
      "anonymous": false,
      "inputs": [
        {
          "indexed": false,
          "name": "_tradeId",
          "type": "uint256"
        }
      ],
      "name": "TradeCancelled",
      "type": "event"
    },
    {
      "anonymous": false,
      "inputs": [
        {
          "indexed": false,
          "name": "_tradeId",
          "type": "uint256"
        }
      ],
      "name": "TradeFilled",
      "type": "event"
    },
    {
      "constant": false,
      "inputs": [
        {
          "name": "_tokenContractAddress",
          "type": "address"
        },
        {
          "name": "_makerTokenId",
          "type": "uint256"
        },
        {
          "name": "_takerTokenId",
          "type": "uint256"
        }
      ],
      "name": "createERC721Trade",
      "outputs": [],
      "payable": false,
      "stateMutability": "nonpayable",
      "type": "function"
    },
    {
      "constant": false,
      "inputs": [
        {
          "name": "_tradeId",
          "type": "uint256"
        }
      ],
      "name": "fillERC721Trade",
      "outputs": [],
      "payable": false,
      "stateMutability": "nonpayable",
      "type": "function"
    },
    {
      "constant": false,
      "inputs": [
        {
          "name": "_tradeId",
          "type": "uint256"
        }
      ],
      "name": "cancelERC721Trade",
      "outputs": [],
      "payable": false,
      "stateMutability": "nonpayable",
      "type": "function"
    }
  ],
  "bytecode": "0x6080604052600060015534801561001557600080fd5b5061178b806100256000396000f30060806040526004361061006d576000357c0100000000000000000000000000000000000000000000000000000000900463ffffffff16806302c5115b146100725780636d6448641461009d578063772a65aa146100f45780637e9aa2c014610121578063bed35b791461014e575b600080fd5b34801561007e57600080fd5b5061008761023a565b6040518082815260200191505060405180910390f35b3480156100a957600080fd5b506100f2600480360381019080803573ffffffffffffffffffffffffffffffffffffffff1690602001909291908035906020019092919080359060200190929190505050610240565b005b34801561010057600080fd5b5061011f60048036038101908080359060200190929190505050610b93565b005b34801561012d57600080fd5b5061014c6004803603810190808035906020019092919050505061106f565b005b34801561015a57600080fd5b506101796004803603810190808035906020019092919050505061146e565b604051808773ffffffffffffffffffffffffffffffffffffffff1673ffffffffffffffffffffffffffffffffffffffff1681526020018673ffffffffffffffffffffffffffffffffffffffff1673ffffffffffffffffffffffffffffffffffffffff1681526020018573ffffffffffffffffffffffffffffffffffffffff1673ffffffffffffffffffffffffffffffffffffffff16815260200184815260200183815260200182151515158152602001965050505050505060405180910390f35b60015481565b600061024a6116e4565b8491508173ffffffffffffffffffffffffffffffffffffffff166301ffc9a76380ac58cd7c0100000000000000000000000000000000000000000000000000000000026040518263ffffffff167c010000000000000000000000000000000000000000000000000000000002815260040180827bffffffffffffffffffffffffffffffffffffffffffffffffffffffff19167bffffffffffffffffffffffffffffffffffffffffffffffffffffffff19168152602001915050602060405180830381600087803b15801561031d57600080fd5b505af1158015610331573d6000803e3d6000fd5b505050506040513d602081101561034757600080fd5b810190808051906020019092919050505015156103f2576040517f08c379a00000000000000000000000000000000000000000000000000000000081526004018080602001828103825260348152602001807f50726f766964656420636f6e7472616374206d75737420737570706f7274207481526020017f68652045524337323120696e746572666163652e00000000000000000000000081525060400191505060405180910390fd5b8173ffffffffffffffffffffffffffffffffffffffff166301ffc9a7634f558e797c0100000000000000000000000000000000000000000000000000000000026040518263ffffffff167c010000000000000000000000000000000000000000000000000000000002815260040180827bffffffffffffffffffffffffffffffffffffffffffffffffffffffff19167bffffffffffffffffffffffffffffffffffffffffffffffffffffffff19168152602001915050602060405180830381600087803b1580156104c257600080fd5b505af11580156104d6573d6000803e3d6000fd5b505050506040513d60208110156104ec57600080fd5b81019080805190602001909291905050501515610597576040517f08c379a000000000000000000000000000000000000000000000000000000000815260040180806020018281038252603a8152602001807f50726f766964656420636f6e7472616374206d75737420737570706f7274207481526020017f686520455243373231206578697374732066756e6374696f6e2e00000000000081525060400191505060405180910390fd5b8173ffffffffffffffffffffffffffffffffffffffff16634f558e79856040518263ffffffff167c010000000000000000000000000000000000000000000000000000000002815260040180828152602001915050602060405180830381600087803b15801561060657600080fd5b505af115801561061a573d6000803e3d6000fd5b505050506040513d602081101561063057600080fd5b810190808051906020019092919050505015156106b5576040517f08c379a000000000000000000000000000000000000000000000000000000000815260040180806020018281038252601b8152602001807f4d616b657220746f6b656e20646f6573206e6f742065786973742e000000000081525060200191505060405180910390fd5b8173ffffffffffffffffffffffffffffffffffffffff16634f558e79846040518263ffffffff167c010000000000000000000000000000000000000000000000000000000002815260040180828152602001915050602060405180830381600087803b15801561072457600080fd5b505af1158015610738573d6000803e3d6000fd5b505050506040513d602081101561074e57600080fd5b810190808051906020019092919050505015156107d3576040517f08c379a000000000000000000000000000000000000000000000000000000000815260040180806020018281038252601b8152602001807f54616b657220746f6b656e20646f6573206e6f742065786973742e000000000081525060200191505060405180910390fd5b6107dd8285611517565b1515610877576040517f08c379a00000000000000000000000000000000000000000000000000000000081526004018080602001828103825260398152602001807f4d616b6572206d757374206f776e2074686520746f6b656e20616e642068617681526020017f6520617070726f766564207468697320636f6e74726163742e0000000000000081525060400191505060405180910390fd5b8173ffffffffffffffffffffffffffffffffffffffff166323b872dd3330876040518463ffffffff167c0100000000000000000000000000000000000000000000000000000000028152600401808473ffffffffffffffffffffffffffffffffffffffff1673ffffffffffffffffffffffffffffffffffffffff1681526020018373ffffffffffffffffffffffffffffffffffffffff1673ffffffffffffffffffffffffffffffffffffffff1681526020018281526020019350505050600060405180830381600087803b15801561094e57600080fd5b505af1158015610962573d6000803e3d6000fd5b5050505060c0604051908101604052803373ffffffffffffffffffffffffffffffffffffffff168152602001600073ffffffffffffffffffffffffffffffffffffffff1681526020018673ffffffffffffffffffffffffffffffffffffffff16815260200185815260200184815260200160011515815250905080600080600154815260200190815260200160002060008201518160000160006101000a81548173ffffffffffffffffffffffffffffffffffffffff021916908373ffffffffffffffffffffffffffffffffffffffff16021790555060208201518160010160006101000a81548173ffffffffffffffffffffffffffffffffffffffff021916908373ffffffffffffffffffffffffffffffffffffffff16021790555060408201518160020160006101000a81548173ffffffffffffffffffffffffffffffffffffffff021916908373ffffffffffffffffffffffffffffffffffffffff160217905550606082015181600301556080820151816004015560a08201518160050160006101000a81548160ff0219169083151502179055509050507fe9b61b2940733016b737068c53046af6ab570abd4dba91e243973ad427f2e385858585600154604051808573ffffffffffffffffffffffffffffffffffffffff1673ffffffffffffffffffffffffffffffffffffffff16815260200184815260200183815260200182815260200194505050505060405180910390a16001600081548092919060010191905055505050505050565b60008082600080600083815260200190815260200160002090508060050160009054906101000a900460ff161515610c59576040517f08c379a000000000000000000000000000000000000000000000000000000000815260040180806020018281038252603a8152602001807f546869732066756e6374696f6e2063616e206f6e6c792062652063616c6c656481526020017f207768656e20746865207472616465206973206163746976652e00000000000081525060400191505060405180910390fd5b60008086815260200190815260200160002093508360020160009054906101000a900473ffffffffffffffffffffffffffffffffffffffff169250610ca2838560040154611517565b1515610d3c576040517f08c379a00000000000000000000000000000000000000000000000000000000081526004018080602001828103825260398152602001807f54616b6572206d757374206f776e2074686520746f6b656e20616e642068617681526020017f6520617070726f766564207468697320636f6e74726163742e0000000000000081525060400191505060405180910390fd5b8273ffffffffffffffffffffffffffffffffffffffff166323b872dd333087600401546040518463ffffffff167c0100000000000000000000000000000000000000000000000000000000028152600401808473ffffffffffffffffffffffffffffffffffffffff1673ffffffffffffffffffffffffffffffffffffffff1681526020018373ffffffffffffffffffffffffffffffffffffffff1673ffffffffffffffffffffffffffffffffffffffff1681526020018281526020019350505050600060405180830381600087803b158015610e1757600080fd5b505af1158015610e2b573d6000803e3d6000fd5b505050508273ffffffffffffffffffffffffffffffffffffffff1663095ea7b33386600301546040518363ffffffff167c0100000000000000000000000000000000000000000000000000000000028152600401808373ffffffffffffffffffffffffffffffffffffffff1673ffffffffffffffffffffffffffffffffffffffff16815260200182815260200192505050600060405180830381600087803b158015610ed657600080fd5b505af1158015610eea573d6000803e3d6000fd5b505050508273ffffffffffffffffffffffffffffffffffffffff1663095ea7b38560000160009054906101000a900473ffffffffffffffffffffffffffffffffffffffff1686600401546040518363ffffffff167c0100000000000000000000000000000000000000000000000000000000028152600401808373ffffffffffffffffffffffffffffffffffffffff1673ffffffffffffffffffffffffffffffffffffffff16815260200182815260200192505050600060405180830381600087803b158015610fb957600080fd5b505af1158015610fcd573d6000803e3d6000fd5b50505050338460010160006101000a81548173ffffffffffffffffffffffffffffffffffffffff021916908373ffffffffffffffffffffffffffffffffffffffff1602179055507f44cca6dafe2e0f3a839a37cf698fb823fca491b864bcd5b5cc9204e1861070bc856040518082815260200191505060405180910390a160008160050160006101000a81548160ff0219169083151502179055505050505050565b600080823373ffffffffffffffffffffffffffffffffffffffff1660008083815260200190815260200160002060000160009054906101000a900473ffffffffffffffffffffffffffffffffffffffff1673ffffffffffffffffffffffffffffffffffffffff16141515611171576040517f08c379a00000000000000000000000000000000000000000000000000000000081526004018080602001828103825260338152602001807f4f6e6c7920746865206d616b6572206f66207468652074726164652063616e2081526020017f63616c6c20746869732066756e6374696f6e2e0000000000000000000000000081525060400191505060405180910390fd5b83600080600083815260200190815260200160002090508060050160009054906101000a900460ff161515611234576040517f08c379a000000000000000000000000000000000000000000000000000000000815260040180806020018281038252603a8152602001807f546869732066756e6374696f6e2063616e206f6e6c792062652063616c6c656481526020017f207768656e20746865207472616465206973206163746976652e00000000000081525060400191505060405180910390fd5b60008087815260200190815260200160002094508460020160009054906101000a900473ffffffffffffffffffffffffffffffffffffffff1693503073ffffffffffffffffffffffffffffffffffffffff168473ffffffffffffffffffffffffffffffffffffffff16636352211e87600301546040518263ffffffff167c010000000000000000000000000000000000000000000000000000000002815260040180828152602001915050602060405180830381600087803b1580156112f957600080fd5b505af115801561130d573d6000803e3d6000fd5b505050506040513d602081101561132357600080fd5b810190808051906020019092919050505073ffffffffffffffffffffffffffffffffffffffff1614151561135357fe5b8373ffffffffffffffffffffffffffffffffffffffff1663095ea7b33387600301546040518363ffffffff167c0100000000000000000000000000000000000000000000000000000000028152600401808373ffffffffffffffffffffffffffffffffffffffff1673ffffffffffffffffffffffffffffffffffffffff16815260200182815260200192505050600060405180830381600087803b1580156113fa57600080fd5b505af115801561140e573d6000803e3d6000fd5b505050507f4e02dcf02d8510f6c8a6878a3c54ae6e2bfbf552df29221d7a1eed173a6b1ae7866040518082815260200191505060405180910390a160008160050160006101000a81548160ff021916908315150217905550505050505050565b60006020528060005260406000206000915090508060000160009054906101000a900473ffffffffffffffffffffffffffffffffffffffff16908060010160009054906101000a900473ffffffffffffffffffffffffffffffffffffffff16908060020160009054906101000a900473ffffffffffffffffffffffffffffffffffffffff16908060030154908060040154908060050160009054906101000a900460ff16905086565b60008060003373ffffffffffffffffffffffffffffffffffffffff168573ffffffffffffffffffffffffffffffffffffffff16636352211e866040518263ffffffff167c010000000000000000000000000000000000000000000000000000000002815260040180828152602001915050602060405180830381600087803b1580156115a257600080fd5b505af11580156115b6573d6000803e3d6000fd5b505050506040513d60208110156115cc57600080fd5b810190808051906020019092919050505073ffffffffffffffffffffffffffffffffffffffff161491503073ffffffffffffffffffffffffffffffffffffffff168573ffffffffffffffffffffffffffffffffffffffff1663081812fc866040518263ffffffff167c010000000000000000000000000000000000000000000000000000000002815260040180828152602001915050602060405180830381600087803b15801561167c57600080fd5b505af1158015611690573d6000803e3d6000fd5b505050506040513d60208110156116a657600080fd5b810190808051906020019092919050505073ffffffffffffffffffffffffffffffffffffffff161490508180156116da5750805b9250505092915050565b60c060405190810160405280600073ffffffffffffffffffffffffffffffffffffffff168152602001600073ffffffffffffffffffffffffffffffffffffffff168152602001600073ffffffffffffffffffffffffffffffffffffffff168152602001600081526020016000815260200160001515815250905600a165627a7a72305820b9a4b093e079eece1ae177d66137a4f0e2b11bf8db7b02ce37293523c6b0d25b0029",
  "source": "pragma solidity 0.4.24;\r\n\r\n// TODO: import \"openzeppelin-solidity/contracts/token/ERC721/ERC721Receiver.sol\"; for safeTransfer\r\n\r\n/// @dev Provides ERC721 contract ionterface for querying ownership and manipulating approval status\r\nimport \"openzeppelin-solidity/contracts/token/ERC721/ERC721Basic.sol\";\r\n\r\n/// @title Etherary trustless exchange of ERC721 token\r\n// Terminology:\r\n//  - Trade: Struct where one party offers something and specifies what it wants in return, e.g.\r\n//           I offer token 2 of contract A and want token 3 of the same contract in exchange.\r\n//  - Maker: Creator of the trade\r\n//  - Maker token: Token the maker wants to trade away\r\n//  - Taker: Party that completes a trade, receiving the maker token, giving away the taker token\r\n//  - Taker token: Token the taker has that the maker wants\r\n\r\ncontract Etherary {\r\n    /// @dev Magic numbers for the xor-ed hashes of the interface\r\n    /// https://github.com/OpenZeppelin/openzeppelin-solidity/blob/master/contracts/token/ERC721/ERC721Basic.sol\r\n    /// Used for checking whether the provided ERC721 contract implements the neccessary\r\n    /// functions. See EIP165\r\n    bytes4 private constant InterfaceId_ERC721 = 0x80ac58cd;\r\n    bytes4 private constant InterfaceId_ERC721Exists = 0x4f558e79;\r\n\r\n    mapping (uint256 => Trade) public idToTrade;\r\n\r\n    // Increasing counter of trade IDs\r\n    uint256 public tradeId = 0;\r\n\r\n    // Do this later as part of an trade?\r\n    // enum AssetType { ETHER, ERC20, ERC721 }\r\n    // TODO: event arguments should start with underscores\r\n    event TradeCreated (\r\n        address _tokenContract,\r\n        uint256 _makerTokenId,\r\n        uint256 _takerTokenId,\r\n        uint256 _tradeId\r\n    );\r\n\r\n    event TradeCancelled (\r\n        uint256 _tradeId\r\n    );\r\n\r\n    event TradeFilled (\r\n        uint256 _tradeId\r\n    );\r\n\r\n    struct Trade {\r\n        //AssetType assetType;\r\n        address maker;\r\n        address taker;\r\n        address tokenContract;\r\n        uint256 makerTokenId; /// @dev only used for ERC721\r\n        uint256 takerTokenId; /// @dev only used for ERC721\r\n        bool isActive;\r\n    }\r\n\r\n    modifier onlyMaker(uint256 _tradeId) {\r\n        require(\r\n            idToTrade[_tradeId].maker == msg.sender,\r\n            \"Only the maker of the trade can call this function.\");\r\n        _;\r\n    }\r\n\r\n    modifier deactivatesTrade(uint256 _tradeId) {\r\n        Trade storage trade = idToTrade[_tradeId];\r\n        require(trade.isActive, \"This function can only be called when the trade is active.\");\r\n        _;\r\n        trade.isActive = false;\r\n    }\r\n\r\n    /// @notice This contract must be an approved withdrawer for the maker token\r\n    function createERC721Trade(\r\n        address _tokenContractAddress,\r\n        uint256 _makerTokenId,\r\n        uint256 _takerTokenId\r\n    )\r\n        public\r\n    {\r\n        ERC721Basic tokenContract = ERC721Basic(_tokenContractAddress);\r\n        //TODO: token ids should be different\r\n        require(\r\n            tokenContract.supportsInterface(InterfaceId_ERC721),\r\n            \"Provided contract must support the ERC721 interface.\"\r\n        );\r\n        require(\r\n            tokenContract.supportsInterface(InterfaceId_ERC721Exists),\r\n            \"Provided contract must support the ERC721 exists function.\"\r\n        );\r\n        require(tokenContract.exists(_makerTokenId), \"Maker token does not exist.\");\r\n        require(tokenContract.exists(_takerTokenId), \"Taker token does not exist.\");\r\n        require(\r\n            callerOwnsTokenAndHasApproved(tokenContract, _makerTokenId),\r\n            \"Maker must own the token and have approved this contract.\"\r\n        );\r\n\r\n        tokenContract.transferFrom(msg.sender, address(this), _makerTokenId);\r\n        Trade memory trade = Trade({\r\n            maker: msg.sender,\r\n            taker: 0x0000000000000000000000000000000000000000,\r\n            tokenContract: _tokenContractAddress,\r\n            makerTokenId: _makerTokenId,\r\n            takerTokenId: _takerTokenId,\r\n            isActive: true\r\n        });\r\n\r\n        idToTrade[tradeId] = trade;\r\n        emit TradeCreated(_tokenContractAddress, _makerTokenId, _takerTokenId, tradeId);\r\n        tradeId++;\r\n    }\r\n\r\n    function fillERC721Trade(uint256 _tradeId)\r\n        public\r\n        deactivatesTrade(_tradeId)\r\n    {\r\n        Trade storage trade = idToTrade[_tradeId];\r\n\r\n        ERC721Basic tokenContract = ERC721Basic(trade.tokenContract);\r\n        require(\r\n            callerOwnsTokenAndHasApproved(tokenContract, trade.takerTokenId),\r\n            \"Taker must own the token and have approved this contract.\"\r\n        );\r\n        tokenContract.transferFrom(msg.sender, address(this), trade.takerTokenId);\r\n        tokenContract.approve(msg.sender, trade.makerTokenId);\r\n        tokenContract.approve(trade.maker, trade.takerTokenId);\r\n        trade.taker = msg.sender;\r\n        emit TradeFilled(_tradeId);\r\n    }\r\n\r\n    function cancelERC721Trade(uint256 _tradeId)\r\n        public\r\n        onlyMaker(_tradeId)\r\n        deactivatesTrade(_tradeId)\r\n    {\r\n        Trade storage trade = idToTrade[_tradeId];\r\n\r\n        ERC721Basic tokenContract = ERC721Basic(trade.tokenContract);\r\n        assert(tokenContract.ownerOf(trade.makerTokenId) == address(this));\r\n        tokenContract.approve(msg.sender, trade.makerTokenId);\r\n\r\n        emit TradeCancelled(_tradeId);\r\n    }\r\n\r\n    function callerOwnsTokenAndHasApproved(ERC721Basic _tokenContract, uint256 _tokenId)\r\n        private\r\n        returns (bool)\r\n    {\r\n        bool callerOwnsToken = _tokenContract.ownerOf(_tokenId) == msg.sender;\r\n        bool callerHasApproved = _tokenContract.getApproved(_tokenId) == address(this);\r\n        return callerOwnsToken && callerHasApproved;\r\n    }\r\n\r\n}\r\n",
  "sourcePath": "D:\\Code\\developer-academy\\Etherary\\contracts\\Etherary.sol",
  "compiler": {
    "name": "solc",
    "version": "0.4.24+commit.e67f0147.Emscripten.clang"
  },
  "schemaVersion": "2.0.1",
  "updatedAt": "2018-08-15T12:05:08.954Z"
}