{
  "contractName": "Etherary",
  "abi": [
    {
      "constant": true,
      "inputs": [],
      "name": "orderId",
      "outputs": [
        {
          "name": "",
          "type": "uint256"
        }
      ],
      "payable": false,
      "stateMutability": "view",
      "type": "function"
    },
    {
      "constant": true,
      "inputs": [
        {
          "name": "",
          "type": "uint256"
        }
      ],
      "name": "idToSellOrder",
      "outputs": [
        {
          "name": "seller",
          "type": "address"
        },
        {
          "name": "tokenContract",
          "type": "address"
        },
        {
          "name": "tokenForSale",
          "type": "uint256"
        },
        {
          "name": "tokenWanted",
          "type": "uint256"
        },
        {
          "name": "isActive",
          "type": "bool"
        },
        {
          "name": "buyer",
          "type": "address"
        }
      ],
      "payable": false,
      "stateMutability": "view",
      "type": "function"
    },
    {
      "constant": true,
      "inputs": [
        {
          "name": "",
          "type": "address"
        },
        {
          "name": "",
          "type": "uint256"
        }
      ],
      "name": "sellerToOrders",
      "outputs": [
        {
          "name": "",
          "type": "uint256"
        }
      ],
      "payable": false,
      "stateMutability": "view",
      "type": "function"
    },
    {
      "anonymous": false,
      "inputs": [
        {
          "indexed": false,
          "name": "tokenContract",
          "type": "address"
        },
        {
          "indexed": false,
          "name": "tokenForSale",
          "type": "uint256"
        },
        {
          "indexed": false,
          "name": "tokenWanted",
          "type": "uint256"
        },
        {
          "indexed": false,
          "name": "orderId",
          "type": "uint256"
        }
      ],
      "name": "SellOrderCreated",
      "type": "event"
    },
    {
      "anonymous": false,
      "inputs": [
        {
          "indexed": false,
          "name": "orderId",
          "type": "uint256"
        }
      ],
      "name": "SellOrderCancelled",
      "type": "event"
    },
    {
      "anonymous": false,
      "inputs": [
        {
          "indexed": false,
          "name": "orderId",
          "type": "uint256"
        }
      ],
      "name": "SellOrderFilled",
      "type": "event"
    },
    {
      "constant": false,
      "inputs": [
        {
          "name": "_tokenContractAddress",
          "type": "address"
        },
        {
          "name": "_tokenForSale",
          "type": "uint256"
        },
        {
          "name": "_tokenWanted",
          "type": "uint256"
        }
      ],
      "name": "createERC721SellOrder",
      "outputs": [
        {
          "name": "",
          "type": "uint256"
        }
      ],
      "payable": false,
      "stateMutability": "nonpayable",
      "type": "function"
    },
    {
      "constant": false,
      "inputs": [
        {
          "name": "_orderId",
          "type": "uint256"
        }
      ],
      "name": "fillERC721SellOrder",
      "outputs": [],
      "payable": false,
      "stateMutability": "nonpayable",
      "type": "function"
    },
    {
      "constant": false,
      "inputs": [
        {
          "name": "_orderId",
          "type": "uint256"
        }
      ],
      "name": "cancelERC721SellOrder",
      "outputs": [],
      "payable": false,
      "stateMutability": "nonpayable",
      "type": "function"
    }
  ],
  "bytecode": "0x6080604052600060025534801561001557600080fd5b506119bf806100256000396000f300608060405260043610610078576000357c0100000000000000000000000000000000000000000000000000000000900463ffffffff1680631549162f1461007d578063163de5e5146100aa57806339508e1e146100d557806387e0924814610102578063b546375e146101ee578063fcc8ed6b1461024f575b600080fd5b34801561008957600080fd5b506100a8600480360381019080803590602001909291905050506102ba565b005b3480156100b657600080fd5b506100bf610693565b6040518082815260200191505060405180910390f35b3480156100e157600080fd5b5061010060048036038101908080359060200190929190505050610699565b005b34801561010e57600080fd5b5061012d60048036038101908080359060200190929190505050610c1d565b604051808773ffffffffffffffffffffffffffffffffffffffff1673ffffffffffffffffffffffffffffffffffffffff1681526020018673ffffffffffffffffffffffffffffffffffffffff1673ffffffffffffffffffffffffffffffffffffffff168152602001858152602001848152602001831515151581526020018273ffffffffffffffffffffffffffffffffffffffff1673ffffffffffffffffffffffffffffffffffffffff168152602001965050505050505060405180910390f35b3480156101fa57600080fd5b50610239600480360381019080803573ffffffffffffffffffffffffffffffffffffffff16906020019092919080359060200190929190505050610cc6565b6040518082815260200191505060405180910390f35b34801561025b57600080fd5b506102a4600480360381019080803573ffffffffffffffffffffffffffffffffffffffff1690602001909291908035906020019092919080359060200190929190505050610cf6565b6040518082815260200191505060405180910390f35b600080823373ffffffffffffffffffffffffffffffffffffffff1660008083815260200190815260200160002060000160009054906101000a900473ffffffffffffffffffffffffffffffffffffffff1673ffffffffffffffffffffffffffffffffffffffff161415156103bc576040517f08c379a00000000000000000000000000000000000000000000000000000000081526004018080602001828103825260308152602001807f4f6e6c79206f72646572206f726465722063726561746f722063616e2063616c81526020017f6c20746869732066756e6374696f6e2e0000000000000000000000000000000081525060400191505060405180910390fd5b83600080600083815260200190815260200160002090508060040160009054906101000a900460ff161515610459576040517f08c379a00000000000000000000000000000000000000000000000000000000081526004018080602001828103825260148152602001807f4f72646572206973206e6f74206163746976652e00000000000000000000000081525060200191505060405180910390fd5b60008087815260200190815260200160002094508460010160009054906101000a900473ffffffffffffffffffffffffffffffffffffffff1693503073ffffffffffffffffffffffffffffffffffffffff168473ffffffffffffffffffffffffffffffffffffffff16636352211e87600201546040518263ffffffff167c010000000000000000000000000000000000000000000000000000000002815260040180828152602001915050602060405180830381600087803b15801561051e57600080fd5b505af1158015610532573d6000803e3d6000fd5b505050506040513d602081101561054857600080fd5b810190808051906020019092919050505073ffffffffffffffffffffffffffffffffffffffff1614151561057857fe5b8373ffffffffffffffffffffffffffffffffffffffff1663095ea7b33387600201546040518363ffffffff167c0100000000000000000000000000000000000000000000000000000000028152600401808373ffffffffffffffffffffffffffffffffffffffff1673ffffffffffffffffffffffffffffffffffffffff16815260200182815260200192505050600060405180830381600087803b15801561061f57600080fd5b505af1158015610633573d6000803e3d6000fd5b505050507fcd8504889bbebfbd5b4e87d5550948fedab56dea9df7b40e7d8f6106b2e913af866040518082815260200191505060405180910390a160008160040160006101000a81548160ff021916908315150217905550505050505050565b60025481565b60008082600080600083815260200190815260200160002090508060040160009054906101000a900460ff161515610739576040517f08c379a00000000000000000000000000000000000000000000000000000000081526004018080602001828103825260148152602001807f4f72646572206973206e6f74206163746976652e00000000000000000000000081525060200191505060405180910390fd5b60008086815260200190815260200160002093508360010160009054906101000a900473ffffffffffffffffffffffffffffffffffffffff1692503073ffffffffffffffffffffffffffffffffffffffff168373ffffffffffffffffffffffffffffffffffffffff1663081812fc86600301546040518263ffffffff167c010000000000000000000000000000000000000000000000000000000002815260040180828152602001915050602060405180830381600087803b1580156107fe57600080fd5b505af1158015610812573d6000803e3d6000fd5b505050506040513d602081101561082857600080fd5b810190808051906020019092919050505073ffffffffffffffffffffffffffffffffffffffff161415156108ea576040517f08c379a00000000000000000000000000000000000000000000000000000000081526004018080602001828103825260298152602001807f4e6f7420617574686f72697a656420746f20776974686472617720746f6b656e81526020017f20666f72206275792e000000000000000000000000000000000000000000000081525060400191505060405180910390fd5b8273ffffffffffffffffffffffffffffffffffffffff166323b872dd333087600301546040518463ffffffff167c0100000000000000000000000000000000000000000000000000000000028152600401808473ffffffffffffffffffffffffffffffffffffffff1673ffffffffffffffffffffffffffffffffffffffff1681526020018373ffffffffffffffffffffffffffffffffffffffff1673ffffffffffffffffffffffffffffffffffffffff1681526020018281526020019350505050600060405180830381600087803b1580156109c557600080fd5b505af11580156109d9573d6000803e3d6000fd5b505050508273ffffffffffffffffffffffffffffffffffffffff1663095ea7b33386600201546040518363ffffffff167c0100000000000000000000000000000000000000000000000000000000028152600401808373ffffffffffffffffffffffffffffffffffffffff1673ffffffffffffffffffffffffffffffffffffffff16815260200182815260200192505050600060405180830381600087803b158015610a8457600080fd5b505af1158015610a98573d6000803e3d6000fd5b505050508273ffffffffffffffffffffffffffffffffffffffff1663095ea7b38560000160009054906101000a900473ffffffffffffffffffffffffffffffffffffffff1686600301546040518363ffffffff167c0100000000000000000000000000000000000000000000000000000000028152600401808373ffffffffffffffffffffffffffffffffffffffff1673ffffffffffffffffffffffffffffffffffffffff16815260200182815260200192505050600060405180830381600087803b158015610b6757600080fd5b505af1158015610b7b573d6000803e3d6000fd5b50505050338460040160016101000a81548173ffffffffffffffffffffffffffffffffffffffff021916908373ffffffffffffffffffffffffffffffffffffffff1602179055507f1dc91f61fa34a97d1050cc3404614a53f27310c989275ee4ea02767f27a45c0d856040518082815260200191505060405180910390a160008160040160006101000a81548160ff0219169083151502179055505050505050565b60006020528060005260406000206000915090508060000160009054906101000a900473ffffffffffffffffffffffffffffffffffffffff16908060010160009054906101000a900473ffffffffffffffffffffffffffffffffffffffff16908060020154908060030154908060040160009054906101000a900460ff16908060040160019054906101000a900473ffffffffffffffffffffffffffffffffffffffff16905086565b600160205281600052604060002081815481101515610ce157fe5b90600052602060002001600091509150505481565b6000806000610d03611918565b8692508273ffffffffffffffffffffffffffffffffffffffff166301ffc9a76380ac58cd7c0100000000000000000000000000000000000000000000000000000000026040518263ffffffff167c010000000000000000000000000000000000000000000000000000000002815260040180827bffffffffffffffffffffffffffffffffffffffffffffffffffffffff19167bffffffffffffffffffffffffffffffffffffffffffffffffffffffff19168152602001915050602060405180830381600087803b158015610dd657600080fd5b505af1158015610dea573d6000803e3d6000fd5b505050506040513d6020811015610e0057600080fd5b81019080805190602001909291905050501515610eab576040517f08c379a00000000000000000000000000000000000000000000000000000000081526004018080602001828103825260348152602001807f50726f766964656420636f6e7472616374206d75737420737570706f7274207481526020017f68652045524337323120696e746572666163652e00000000000000000000000081525060400191505060405180910390fd5b8273ffffffffffffffffffffffffffffffffffffffff166301ffc9a7634f558e797c0100000000000000000000000000000000000000000000000000000000026040518263ffffffff167c010000000000000000000000000000000000000000000000000000000002815260040180827bffffffffffffffffffffffffffffffffffffffffffffffffffffffff19167bffffffffffffffffffffffffffffffffffffffffffffffffffffffff19168152602001915050602060405180830381600087803b158015610f7b57600080fd5b505af1158015610f8f573d6000803e3d6000fd5b505050506040513d6020811015610fa557600080fd5b81019080805190602001909291905050501515611050576040517f08c379a000000000000000000000000000000000000000000000000000000000815260040180806020018281038252603a8152602001807f50726f766964656420636f6e7472616374206d75737420737570706f7274207481526020017f686520455243373231206578697374732066756e6374696f6e2e00000000000081525060400191505060405180910390fd5b8273ffffffffffffffffffffffffffffffffffffffff16634f558e79876040518263ffffffff167c010000000000000000000000000000000000000000000000000000000002815260040180828152602001915050602060405180830381600087803b1580156110bf57600080fd5b505af11580156110d3573d6000803e3d6000fd5b505050506040513d60208110156110e957600080fd5b8101908080519060200190929190505050151561116e576040517f08c379a00000000000000000000000000000000000000000000000000000000081526004018080602001828103825260188152602001807f546f6b656e20494420646f6573206e6f742065786973742e000000000000000081525060200191505060405180910390fd5b8273ffffffffffffffffffffffffffffffffffffffff16634f558e79866040518263ffffffff167c010000000000000000000000000000000000000000000000000000000002815260040180828152602001915050602060405180830381600087803b1580156111dd57600080fd5b505af11580156111f1573d6000803e3d6000fd5b505050506040513d602081101561120757600080fd5b8101908080519060200190929190505050151561128c576040517f08c379a00000000000000000000000000000000000000000000000000000000081526004018080602001828103825260188152602001807f546f6b656e20494420646f6573206e6f742065786973742e000000000000000081525060200191505060405180910390fd5b3073ffffffffffffffffffffffffffffffffffffffff168373ffffffffffffffffffffffffffffffffffffffff1663081812fc886040518263ffffffff167c010000000000000000000000000000000000000000000000000000000002815260040180828152602001915050602060405180830381600087803b15801561131257600080fd5b505af1158015611326573d6000803e3d6000fd5b505050506040513d602081101561133c57600080fd5b810190808051906020019092919050505073ffffffffffffffffffffffffffffffffffffffff161415156113fe576040517f08c379a000000000000000000000000000000000000000000000000000000000815260040180806020018281038252602a8152602001807f4e6f7420617574686f72697a656420746f20776974686472617720746f6b656e81526020017f20666f722073616c652e0000000000000000000000000000000000000000000081525060400191505060405180910390fd5b8273ffffffffffffffffffffffffffffffffffffffff16636352211e876040518263ffffffff167c010000000000000000000000000000000000000000000000000000000002815260040180828152602001915050602060405180830381600087803b15801561146d57600080fd5b505af1158015611481573d6000803e3d6000fd5b505050506040513d602081101561149757600080fd5b810190808051906020019092919050505091503373ffffffffffffffffffffffffffffffffffffffff168373ffffffffffffffffffffffffffffffffffffffff16636352211e886040518263ffffffff167c010000000000000000000000000000000000000000000000000000000002815260040180828152602001915050602060405180830381600087803b15801561153057600080fd5b505af1158015611544573d6000803e3d6000fd5b505050506040513d602081101561155a57600080fd5b810190808051906020019092919050505073ffffffffffffffffffffffffffffffffffffffff1614151561158d57600080fd5b8273ffffffffffffffffffffffffffffffffffffffff166323b872dd8330896040518463ffffffff167c0100000000000000000000000000000000000000000000000000000000028152600401808473ffffffffffffffffffffffffffffffffffffffff1673ffffffffffffffffffffffffffffffffffffffff1681526020018373ffffffffffffffffffffffffffffffffffffffff1673ffffffffffffffffffffffffffffffffffffffff1681526020018281526020019350505050600060405180830381600087803b15801561166457600080fd5b505af1158015611678573d6000803e3d6000fd5b5050505060c0604051908101604052803373ffffffffffffffffffffffffffffffffffffffff1681526020018873ffffffffffffffffffffffffffffffffffffffff168152602001878152602001868152602001600115158152602001600073ffffffffffffffffffffffffffffffffffffffff16815250905080600080600254815260200190815260200160002060008201518160000160006101000a81548173ffffffffffffffffffffffffffffffffffffffff021916908373ffffffffffffffffffffffffffffffffffffffff16021790555060208201518160010160006101000a81548173ffffffffffffffffffffffffffffffffffffffff021916908373ffffffffffffffffffffffffffffffffffffffff160217905550604082015181600201556060820151816003015560808201518160040160006101000a81548160ff02191690831515021790555060a08201518160040160016101000a81548173ffffffffffffffffffffffffffffffffffffffff021916908373ffffffffffffffffffffffffffffffffffffffff160217905550905050600160003373ffffffffffffffffffffffffffffffffffffffff1673ffffffffffffffffffffffffffffffffffffffff16815260200190815260200160002060025490806001815401808255809150509060018203906000526020600020016000909192909190915055507fab2be3147fcec1ead2de2177513294ea69de2379a98763a3569e6a689f3ea427878787600254604051808573ffffffffffffffffffffffffffffffffffffffff1673ffffffffffffffffffffffffffffffffffffffff16815260200184815260200183815260200182815260200194505050505060405180910390a1600260008154809291906001019190505593505050509392505050565b60c060405190810160405280600073ffffffffffffffffffffffffffffffffffffffff168152602001600073ffffffffffffffffffffffffffffffffffffffff1681526020016000815260200160008152602001600015158152602001600073ffffffffffffffffffffffffffffffffffffffff16815250905600a165627a7a723058209de240cfb956551569295a968fac88ff1f25cce9aefac975223572d57c2f95280029",
  "source": "pragma solidity 0.4.24;\r\n\r\n// TODO: import \"openzeppelin-solidity/contracts/token/ERC721/ERC721Receiver.sol\"; for safeTransfer\r\n\r\n/// @dev Provides ERC721 contract ionterface for querying ownership and manipulating approval status\r\nimport \"openzeppelin-solidity/contracts/token/ERC721/ERC721Basic.sol\";\r\n\r\n/// @title Etherary trustless exchange of ERC721 token\r\ncontract Etherary {\r\n    // Magix numbers for the xor-ed hashes of the interface https://github.com/OpenZeppelin/openzeppelin-solidity/blob/master/contracts/token/ERC721/ERC721Basic.sol\r\n\r\n    /// @dev Used for checking whether the provided ERC721 contract implements the neccessary\r\n    /// functions. These are private in ERC721Token.sol but could be imported in a better way\r\n    bytes4 private constant InterfaceId_ERC721 = 0x80ac58cd;\r\n    bytes4 private constant InterfaceId_ERC721Exists = 0x4f558e79;\r\n\r\n    mapping (uint256 => SellOrder) public idToSellOrder;\r\n    mapping (address => uint256[]) public sellerToOrders;\r\n\r\n    // Increasing counter of order IDs\r\n    uint256 public orderId = 0;\r\n\r\n    // Do this later as part of an order?\r\n    // enum AssetType { ETHER, ERC20, ERC721 }\r\n    // TODO: event arguments should start with underscores\r\n    event SellOrderCreated (\r\n        address tokenContract,\r\n        uint256 tokenForSale,\r\n        uint256 tokenWanted,\r\n        uint256 orderId\r\n    );\r\n\r\n    event SellOrderCancelled (\r\n        uint256 orderId\r\n    );\r\n\r\n    event SellOrderFilled (\r\n        uint256 orderId // TODO: should include address of filler here\r\n    );\r\n\r\n    struct SellOrder {\r\n        //AssetType assetType;\r\n        address seller;\r\n        address tokenContract;\r\n        uint256 tokenForSale; /// @dev only used for ERC721\r\n        uint256 tokenWanted; /// @dev only used for ERC721\r\n        bool isActive;\r\n        address buyer;\r\n    }\r\n\r\n    modifier onlyCreator(uint256 _orderId) {\r\n        require(\r\n            idToSellOrder[_orderId].seller == msg.sender,\r\n            \"Only order order creator can call this function.\");\r\n        _;\r\n    }\r\n\r\n    modifier deactivatesOrder(uint256 _orderId) {\r\n        SellOrder storage order = idToSellOrder[_orderId];\r\n        require(order.isActive, \"Order is not active.\");\r\n        _;\r\n        order.isActive = false;\r\n    }\r\n\r\n\r\n    // This contract must be an approved withdrawer for the token to sell\r\n    function createERC721SellOrder(\r\n        address _tokenContractAddress,\r\n        uint256 _tokenForSale,\r\n        uint256 _tokenWanted\r\n    )\r\n        public\r\n        returns (uint256)\r\n    {\r\n        ERC721Basic tokenContract = ERC721Basic(_tokenContractAddress);\r\n        //TODO: token ids should be different\r\n        require(\r\n            tokenContract.supportsInterface(InterfaceId_ERC721),\r\n            \"Provided contract must support the ERC721 interface.\"\r\n        );\r\n        require(\r\n            tokenContract.supportsInterface(InterfaceId_ERC721Exists),\r\n            \"Provided contract must support the ERC721 exists function.\"\r\n        );\r\n        require(tokenContract.exists(_tokenForSale), \"Token ID does not exist.\");\r\n        require(tokenContract.exists(_tokenWanted), \"Token ID does not exist.\");\r\n        require(\r\n            tokenContract.getApproved(_tokenForSale) == address(this),\r\n            \"Not authorized to withdraw token for sale.\"\r\n        );\r\n        address tokenOwner = tokenContract.ownerOf(_tokenForSale);\r\n        // This below is necessary to avoid people starting auctions for people who were about to\r\n        // start auctions themselves. Alternatively, the sell order creation and token transfer\r\n        // may need to be adjusted.\r\n        require(tokenContract.ownerOf(_tokenForSale) == msg.sender);\r\n\r\n        tokenContract.transferFrom(tokenOwner, address(this), _tokenForSale);\r\n        SellOrder memory order = SellOrder(\r\n            msg.sender,\r\n            _tokenContractAddress,\r\n            _tokenForSale,\r\n            _tokenWanted,\r\n            true,\r\n            0x0000000000000000000000000000000000000000\r\n        );\r\n\r\n        idToSellOrder[orderId] = order;\r\n        sellerToOrders[msg.sender].push(orderId);\r\n        emit SellOrderCreated(_tokenContractAddress, _tokenForSale, _tokenWanted, orderId);\r\n        return orderId++;\r\n    }\r\n\r\n    function fillERC721SellOrder(uint256 _orderId)\r\n        public\r\n        deactivatesOrder(_orderId)\r\n    {\r\n        SellOrder storage order = idToSellOrder[_orderId];\r\n\r\n        ERC721Basic tokenContract = ERC721Basic(order.tokenContract);\r\n        require(\r\n            tokenContract.getApproved(order.tokenWanted) == address(this),\r\n            \"Not authorized to withdraw token for buy.\"\r\n        );\r\n        tokenContract.transferFrom(msg.sender, address(this), order.tokenWanted);\r\n        tokenContract.approve(msg.sender, order.tokenForSale);\r\n        tokenContract.approve(order.seller, order.tokenWanted);\r\n        order.buyer = msg.sender;\r\n        emit SellOrderFilled(_orderId);\r\n    }\r\n\r\n    function cancelERC721SellOrder(uint256 _orderId)\r\n        public\r\n        onlyCreator(_orderId)\r\n        deactivatesOrder(_orderId)\r\n    {\r\n        SellOrder storage order = idToSellOrder[_orderId];\r\n\r\n        ERC721Basic tokenContract = ERC721Basic(order.tokenContract);\r\n        assert(tokenContract.ownerOf(order.tokenForSale) == address(this));\r\n\r\n        tokenContract.approve(msg.sender, order.tokenForSale);\r\n\r\n        emit SellOrderCancelled(_orderId);\r\n    }\r\n\r\n}\r\n",
  "sourcePath": "D:\\Code\\developer-academy\\Etherary\\contracts\\Etherary.sol",
  "compiler": {
    "name": "solc",
    "version": "0.4.24+commit.e67f0147.Emscripten.clang"
  },
  "schemaVersion": "2.0.1",
  "updatedAt": "2018-08-15T07:48:33.440Z"
}